:100000000C942A000C943F000C943F000C943F0089
:100010000C943F000C943F000C943F000C943F0064
:100020000C943F000C943F000C943F000C943F0054
:100030000C943F000C943F000C943F000C943F0044
:100040000C943F000C943F000C943F000C943F0034
:100050000C943F0011241FBECFE5D8E0DEBFCDBF1A
:1000600011E0A0E6B0E0EAECF6E302C005900D92E4
:10007000A63EB107D9F70E94C9100C94631B0C94DB
:100080000000EF92FF920F931F937B018C0120E001
:1000900030E040E05FE40E941D0488238CF0C8013A
:1000A000B70120E030E040E05FE40E94B9010E9427
:1000B000DB049B01AC01205030404040504806C05A
:1000C000C801B7010E94DB049B01AC01B901CA0160
:1000D0001F910F91FF90EF900895A0E0B0E0E3E74B
:1000E000F0E00C948B18DC012B01FA019C9192300A
:1000F00008F439C1EB018881823008F433C19430AF
:1001000069F4843009F02FC111969C91119789816F
:10011000981709F428C1ABEBB0E025C1843009F48D
:1001200021C18230A9F4923009F01DC19A01AD01BC
:1001300088E0EA010990AE01E90109929E0181502F
:10014000C1F7E201898111969C918923818308C1BD
:10015000923009F407C112962D903C901397EB0151
:100160008A819B811496AD90BD90CD90DC901797BD
:10017000EC80FD800E811F819101281B390BB90194
:1001800037FF04C066277727621B730B6032710547
:100190000CF061C0121613066CF537014801062EEB
:1001A00004C096948794779467940A94D2F721E0D8
:1001B00030E040E050E004C0220F331F441F551FC1
:1001C0006A95D2F721503040404050402E213F21C7
:1001D00040235123211531054105510521F021E02E
:1001E00030E040E050E079018A01E628F72808294C
:1001F00019293CC0232BD1F1260E371E35014601AB
:10020000062E04C096948794779467940A94D2F744
:1002100021E030E040E050E004C0220F331F441FD3
:10022000551F6A95D2F721503040404050402A2156
:100230003B214C215D21211531054105510521F05E
:1002400021E030E040E050E059016A01A628B728DB
:10025000C828D9280BC0821593052CF01C01AA24AC
:10026000BB24650103C0EE24FF24870111969C91F5
:10027000D20111968C91981709F445C0992339F051
:10028000A80197012A193B094C095D0906C0A6017E
:1002900095012E193F09400B510B57FD08C01182E3
:1002A0003382228224833583468357831DC081E0B5
:1002B00081833382228288279927DC01821B930B5A
:1002C000A40BB50B84839583A683B7830DC0220F3F
:1002D000331F441F551F24833583468357838281F0
:1002E000938101979383828324813581468157814D
:1002F000DA01C9010197A109B1098F5F9F4FAF4F83
:10030000BF4328F30BC0918333822282EA0CFB1C8B
:100310000C1D1D1DE482F5820683178383E0808314
:10032000248135814681578157FF1AC0C901AA2708
:1003300097FDA095BA2F81709070A070B0705695FF
:10034000479537952795822B932BA42BB52B848328
:100350009583A683B7838281938101969383828359
:10036000DF0101C0D201CD01CDB7DEB7E2E10C94CF
:10037000A718A0E2B0E0EFEBF1E00C9497186983C6
:100380007A838B839C832D833E834F835887E9E058
:10039000EE2EF12CEC0EFD1ECE010196B7010E944F
:1003A00053068E010F5E1F4FCE010596B8010E94C5
:1003B00053068A8991E089278A8BC701B801AE016B
:1003C000475E5F4F0E946D000E947E05A096E6E0AA
:1003D0000C94B318A0E2B0E0E0EFF1E00C949718B1
:1003E00069837A838B839C832D833E834F835887D5
:1003F000F9E0EF2EF12CEC0EFD1ECE010196B701B7
:100400000E9453068E010F5E1F4FCE010596B80164
:100410000E945306C701B801AE01475E5F4F0E94BC
:100420006D000E947E05A096E6E00C94B318A0E251
:10043000B0E0EDE1F2E00C948B1869837A838B8352
:100440009C832D833E834F835887CE010196BE0146
:10045000675F7F4F0E945306CE010596BE016F5E17
:100460007F4F0E9453069985923088F089898230A7
:10047000C8F0943019F4823051F404C0843029F467
:10048000923081F48BEB90E0C6C0923049F420E0CA
:100490009A858A89981321E02A87CE010996BBC0E4
:1004A000823049F420E09A858A89981321E02A8BCA
:1004B000CE014196B0C02D843E844F8458886D880B
:1004C0007E888F88988CEE24FF248701AA24BB2481
:1004D000650140E050E060E070E0E0E0F0E0C10184
:1004E00081709070892BE9F0E60CF71C081D191D2E
:1004F0009A01AB012A0D3B1D4C1D5D1D80E090E073
:10050000A0E0B0E0E614F7040805190520F481E046
:1005100090E0A0E0B0E0BA01A901480F591F6A1F9E
:100520007B1FAA0CBB1CCC1CDD1C97FE08C081E005
:1005300090E0A0E0B0E0A82AB92ACA2ADB2A3196C6
:10054000E032F10549F0660C771C881C991C569422
:10055000479437942794C3CFFA85EA892B893C893D
:100560008B859C85280F391F2E5F3F4F17C0CA010E
:1005700081709070892B61F016950795F794E79438
:1005800080E090E0A0E0B0E8E82AF92A0A2B1B2BD3
:1005900076956795579547952F5F3F4F77FDE7CF46
:1005A0000CC0440F551F661F771F17FD4160EE0CEE
:1005B000FF1C001F111F21503040403090E05907B0
:1005C00090E0690790E4790760F32B8F3C8FDB01A3
:1005D000CA018F779070A070B07080349105A1052A
:1005E000B10561F447FD0AC0E114F10401051105EC
:1005F00029F0405C5F4F6F4F7F4F40781A8EFE1797
:1006000011F081E08A8F4D8F5E8F6F8F78A383E02A
:10061000898FCE0149960E947E05A096E2E10C9456
:10062000A718A8E1B0E0E7E1F3E00C949318698320
:100630007A838B839C832D833E834F835887B9E0D5
:10064000EB2EF12CEC0EFD1ECE010196B7010E949F
:1006500053068E010F5E1F4FCE010596B8010E9412
:1006600053062985223008F47EC03989323010F4CF
:10067000B8017CC08A859A8989278A87243011F03D
:10068000223031F4231709F06EC06BEB70E06EC0BE
:10069000343039F41D861E861F86188A1C861B86F8
:1006A00004C0323021F484E08987B7015FC02B8514
:1006B0003C858B899C89281B390B3C872B87ED84D3
:1006C000FE840F851889AD88BE88CF88D88CEA143F
:1006D000FB040C051D0540F4EE0CFF1C001F111F50
:1006E000215030403C872B8720E030E040E050E054
:1006F00080E090E0A0E0B0E460E070E0EA14FB0489
:100700000C051D0540F0282B392B4A2B5B2BEA18D2
:10071000FB080C091D09B695A79597958795EE0CD2
:10072000FF1C001F111F6F5F7F4F6F31710531F785
:10073000DA01C9018F779070A070B0708034910594
:10074000A105B10561F427FD0AC0E114F10401051A
:10075000110529F0205C3F4F4F4F5F4F20782D87C8
:100760003E874F87588BBE01675F7F4FCB010E944A
:100770007E056896EAE00C94AF18A8E1B0E0E3ECDF
:10078000F3E00C94971869837A838B839C832D8381
:100790003E834F83588789E0E82EF12CEC0EFD1E36
:1007A000CE010196B7010E9453068E010F5E1F4FC6
:1007B000CE010596B8010E9453068985823040F02B
:1007C0008989823028F0C701B8010E94CB0601C098
:1007D00081E06896E6E00C94B318A8E1B0E0E3EF9E
:1007E000F3E00C94971869837A838B839C832D8321
:1007F0003E834F83588789E0E82EF12CEC0EFD1ED6
:10080000CE010196B7010E9453068E010F5E1F4F65
:10081000CE010596B8010E9453068985823040F0CA
:100820008989823028F0C701B8010E94CB0601C037
:100830008FEF6896E6E00C94B318A8E1B0E0E3E22D
:10084000F4E00C94971869837A838B839C832D83BF
:100850003E834F83588789E0E82EF12CEC0EFD1E75
:10086000CE010196B7010E9453068E010F5E1F4F05
:10087000CE010596B8010E9453068985823040F06A
:100880008989823028F0C701B8010E94CB0601C0D7
:100890008FEF6896E6E00C94B318A8E1B0E0E3E5CA
:1008A000F4E00C94971869837A838B839C832D835F
:1008B0003E834F83588789E0E82EF12CEC0EFD1E15
:1008C000CE010196B7010E9453068E010F5E1F4FA5
:1008D000CE010596B8010E9453068985823040F00A
:1008E0008989823028F0C701B8010E94CB0601C077
:1008F00081E06896E6E00C94B318A8E0B0E0E3E885
:10090000F4E00C9494189B01AC0183E08983DA0134
:10091000C9018827B7FD83959927AA27BB27B82E39
:10092000211531054105510519F482E089833AC04A
:100930008823A9F0203080E0380780E0480780E86D
:10094000580729F460E070E080E09FEC30C0EE24AE
:10095000FF248701E21AF30A040B150B02C0790188
:100960008A018EE1C82ED12CDC82CB82ED82FE8200
:100970000F831887C801B7010E942F050197181629
:10098000190684F4082E04C0EE0CFF1C001F111F72
:100990000A94D2F7ED82FE820F831887C81AD90A0B
:1009A000DC82CB82BA82CE0101960E947E05289617
:1009B000E9E00C94B018ACE0B0E0E1EEF4E00C94A7
:1009C0009B1869837A838B839C83CE010196BE0139
:1009D0006B5F7F4F0E9453068D81823061F18230C0
:1009E00050F1843021F48E81882351F12EC02F8163
:1009F000388537FD20C06E812F3131051CF066230C
:100A0000F9F023C08EE190E0821B930B29853A8593
:100A10004B855C8504C056954795379527958A95F3
:100A2000D2F76623B1F050954095309521953F4F10
:100A30004F4F5F4F0EC020E030E040E050E009C073
:100A40002FEF3FEF4FEF5FE704C020E030E040E0E2
:100A500050E8B901CA012C96E2E00C94B718EF9265
:100A6000FF920F931F937B018C0180E0E81680E0DA
:100A7000F80681E0080780E0180788F48FEFE81691
:100A8000F1040105110531F028F088E090E0A0E0C4
:100A9000B0E017C080E090E0A0E0B0E012C080E0DD
:100AA000E81680E0F80680E0080781E0180728F0E3
:100AB00088E190E0A0E0B0E004C080E190E0A0E038
:100AC000B0E020E230E040E050E0281B390B4A0B58
:100AD0005B0B04C016950795F794E7948A95D2F7B7
:100AE000F701ED53FF4F8081281B3109410951095E
:100AF000C9011F910F91FF90EF900895DF92EF923F
:100B0000FF920F931F93FC01E480F580068117810B
:100B1000D1808081823048F480E090E0A0E1B0E0B4
:100B2000E82AF92A0A2B1B2BA5C0843009F49FC0A0
:100B3000823021F4EE24FF24870105C0E114F10482
:100B40000105110519F4E0E0F0E096C062817381BF
:100B50009FEF623879070CF05BC022E83FEF261B5D
:100B6000370B2A3131052CF020E030E040E050E036
:100B70002AC0B801A701022E04C076956795579543
:100B800047950A94D2F781E090E0A0E0B0E004C07D
:100B9000880F991FAA1FBB1F2A95D2F70197A10999
:100BA000B1098E219F21A023B1230097A105B10592
:100BB00021F081E090E0A0E0B0E09A01AB01282BA9
:100BC000392B4A2B5B2BDA01C9018F779070A0700B
:100BD000B07080349105A105B10539F427FF09C033
:100BE000205C3F4F4F4F5F4F04C0215C3F4F4F4F42
:100BF0005F4FE0E0F0E02030A0E03A07A0E04A07D5
:100C0000A0E45A0710F0E1E0F0E079018A0127C082
:100C10006038710564F5FB01E158FF4FD801C70149
:100C20008F779070A070B07080349105A105B105E8
:100C300039F4E7FE0DC080E490E0A0E0B0E004C02D
:100C40008FE390E0A0E0B0E0E80EF91E0A1F1B1F42
:100C500017FF05C016950795F794E794319687E03E
:100C600016950795F794E7948A95D1F705C0EE2479
:100C7000FF248701EFEFF0E06E2F679566276795F9
:100C8000902F9F77D794DD24D7948E2F8695492F68
:100C9000462B582F5D29B701CA011F910F91FF9074
:100CA000EF90DF900895FC01DB01408151812281AA
:100CB000622F6F7770E0221F2227221F9381892FD6
:100CC000880F822B282F30E0991F9927991F1196A2
:100CD0009C93119721153105A9F541155105610521
:100CE000710511F482E037C082E89FEF13969C9360
:100CF0008E9312979A01AB0167E0220F331F441FB6
:100D0000551F6A95D1F783E08C930DC0220F331FD6
:100D1000441F551F12968D919C911397019713961E
:100D20009C938E931297203080E0380780E048072C
:100D300080E4580758F314962D933D934D935C939C
:100D4000179708952F3F310579F441155105610535
:100D5000710519F484E08C93089564FF03C081E069
:100D60008C9312C01C9210C02F57304013963C93A6
:100D70002E93129783E08C9387E0440F551F661FD4
:100D8000771F8A95D1F7706414964D935D936D9398
:100D90007C93179708951F93DC01FB019C9192307F
:100DA00008F447C08081823008F443C0943051F485
:100DB00011961C91843099F58181682F70E0611B38
:100DC00071093FC0843021F0923031F48230B9F1A2
:100DD0008181882389F12DC011961C911197823051
:100DE000F1F081811817D9F412962D913C91139747
:100DF000828193818217930794F028173907BCF0FA
:100E000014968D919D910D90BC91A02D24813581DA
:100E100046815781281739074A075B0718F41123C1
:100E200041F00AC082179307A407B50740F41123C5
:100E300019F061E070E005C06FEF7FEF02C060E085
:100E400070E0CB011F910895DF93CF93CDB7DEB74C
:100E5000EAE3F0E08FE08083E7E3F0E01082E4E390
:100E6000F0E08FEF8083E1E3F0E087E08083EBE365
:100E7000F0E08FE08083E8E3F0E08FE38083E5E358
:100E8000F0E01082E2E3F0E01082CF91DF9108956C
:100E9000DF93CF9300D000D000D0CDB7DEB78A83E8
:100EA0006B834C8381E089838A81853008F0EDC0B3
:100EB0008B81883008F0E9C08C81882321F08C81F7
:100EC000813009F0E2C08A81282F30E03E832D83F3
:100ED0008D819E818230910509F448C02D813E812B
:100EE0002330310534F48D819E818130910571F07C
:100EF000CDC02D813E812330310509F467C08D813D
:100F00009E818430910509F491C0C0C08C818823F2
:100F1000A9F4AAE3B0E0EAE3F0E08081482F8B81F6
:100F2000282F30E081E090E0022E02C0880F991F48
:100F30000A94E2F7809584238C93A8C08C81813039
:100F400009F0A4C0AAE3B0E0EAE3F0E08081482F12
:100F50008B81282F30E081E090E0022E02C0880FC4
:100F6000991F0A94E2F7842B8C9390C08C8188237C
:100F7000A9F4A7E3B0E0E7E3F0E08081482F8B819C
:100F8000282F30E081E090E0022E02C0880F991FE8
:100F90000A94E2F7809584238C9378C08C81813009
:100FA00009F074C0A7E3B0E0E7E3F0E08081482FE8
:100FB0008B81282F30E081E090E0022E02C0880F64
:100FC000991F0A94E2F7842B8C9360C08C8188234C
:100FD000A9F4A4E3B0E0E4E3F0E08081482F8B8142
:100FE000282F30E081E090E0022E02C0880F991F88
:100FF0000A94E2F7809584238C9348C08C818130D9
:1010000009F044C0A4E3B0E0E4E3F0E08081482FBD
:101010008B81282F30E081E090E0022E02C0880F03
:10102000991F0A94E2F7842B8C9330C08C8188231B
:10103000A9F4A1E3B0E0E1E3F0E08081482F8B81E7
:10104000282F30E081E090E0022E02C0880F991F27
:101050000A94E2F7809584238C9318C08C818130A8
:10106000A9F4A1E3B0E0E1E3F0E08081482F8B81B7
:10107000282F30E081E090E0022E02C0880F991FF7
:101080000A94E2F7842B8C9301C0198289812696F9
:101090000FB6F894DEBF0FBECDBFCF91DF9108959C
:1010A000DF93CF9300D000D000D0CDB7DEB78A83D6
:1010B0006B834C8381E089838A81853008F0EDC0A1
:1010C0008B81883008F0E9C08C81882321F08C81E5
:1010D000813009F0E2C08A81282F30E03E832D83E1
:1010E0008D819E818230910509F448C02D813E8119
:1010F0002330310534F48D819E818130910571F06A
:10110000CDC02D813E812330310509F467C08D812A
:101110009E818430910509F491C0C0C08C818823E0
:10112000A9F4ABE3B0E0EBE3F0E08081482F8B81E2
:10113000282F30E081E090E0022E02C0880F991F36
:101140000A94E2F7809584238C93A8C08C81813027
:1011500009F0A4C0ABE3B0E0EBE3F0E08081482FFE
:101160008B81282F30E081E090E0022E02C0880FB2
:10117000991F0A94E2F7842B8C9390C08C8188236A
:10118000A9F4A8E3B0E0E8E3F0E08081482F8B8188
:10119000282F30E081E090E0022E02C0880F991FD6
:1011A0000A94E2F7809584238C9378C08C818130F7
:1011B00009F074C0A8E3B0E0E8E3F0E08081482FD4
:1011C0008B81282F30E081E090E0022E02C0880F52
:1011D000991F0A94E2F7842B8C9360C08C8188233A
:1011E000A9F4A5E3B0E0E5E3F0E08081482F8B812E
:1011F000282F30E081E090E0022E02C0880F991F76
:101200000A94E2F7809584238C9348C08C818130C6
:1012100009F044C0A5E3B0E0E5E3F0E08081482FA9
:101220008B81282F30E081E090E0022E02C0880FF1
:10123000991F0A94E2F7842B8C9330C08C81882309
:10124000A9F4A2E3B0E0E2E3F0E08081482F8B81D3
:10125000282F30E081E090E0022E02C0880F991F15
:101260000A94E2F7809584238C9318C08C81813096
:10127000A9F4A2E3B0E0E2E3F0E08081482F8B81A3
:10128000282F30E081E090E0022E02C0880F991FE5
:101290000A94E2F7842B8C9301C0198289812696E7
:1012A0000FB6F894DEBF0FBECDBFCF91DF9108958A
:1012B000DF93CF93CDB7DEB728970FB6F894DEBF94
:1012C0000FBECDBF8B836C835E834D8381E08A83A9
:1012D0008B81853008F0ADC08C81883008F0A9C0C2
:1012E0008D819E81009709F4A4C08B81282F30E066
:1012F00038872F834F81588542305105C9F18F813E
:1013000098858330910534F42F813885213031055B
:1013100071F090C04F8158854330510509F449C0A0
:101320008F8198858430910509F463C083C0E9E317
:10133000F0E08081282F30E08C81882F90E0A90197
:1013400002C0559547958A95E2F7CA018170898355
:101350008981882321F4ED81FE8110826BC089810F
:10136000813009F067C0ED81FE8181E0808362C039
:10137000E6E3F0E08081282F30E08C81882F90E038
:10138000A90102C0559547958A95E2F7CA01817077
:1013900089838981882321F4ED81FE8110824AC0EE
:1013A0008981813009F046C0ED81FE8181E0808332
:1013B00041C0E3E3F0E08081282F30E08C81882F6A
:1013C00090E0A90102C0559547958A95E2F7CA01B8
:1013D000817089838981882321F4ED81FE811082C7
:1013E00029C08981813031F5ED81FE8181E08083E2
:1013F00021C0E0E3F0E08081282F30E08C81882F4D
:1014000090E0A90102C0559547958A95E2F7CA0177
:10141000817089838981882321F4ED81FE81108286
:1014200009C08981813031F4ED81FE8181E08083C2
:1014300001C01A828A8128960FB6F894DEBF0FBECB
:10144000CDBFCF91DF910895DF93CF9300D000D02F
:101450000F92CDB7DEB78A836B8381E089838A815F
:101460008530D0F58B81882319F08B818130A1F5EF
:101470008A81282F30E03D832C838C819D818230AE
:101480009105D9F02C813D812330310534F48C81D4
:101490009D818130910561F020C02C813D812330F8
:1014A000310581F08C819D818430910581F015C0DA
:1014B000EAE3F0E08B81808310C0E7E3F0E08B810A
:1014C00080830BC0E4E3F0E08B81808306C0E7E318
:1014D000F0E08B81808301C0198289810F900F9089
:1014E0000F900F900F90CF91DF910895DF93CF93DE
:1014F00000D000D00F92CDB7DEB78A836B8381E036
:1015000089838A81853098F58A81282F30E03D8350
:101510002C838C819D8182309105D9F02C813D8175
:101520002330310534F48C819D818130910561F047
:101530001EC02C813D812330310581F08C819D813D
:101540008430910581F013C0EBE3F0E08B81808360
:101550000EC0E8E3F0E08B81808309C0E5E3F0E0B2
:101560008B81808304C0E2E3F0E08B8180838981FA
:101570000F900F900F900F900F90CF91DF910895E3
:10158000DF93CF9300D000D000D0CDB7DEB78A83F1
:101590007C836B8381E089838A81853008F040C039
:1015A0008B819C810097E1F18A81282F30E03E8376
:1015B0002D838D819E8182309105E9F02D813E81C0
:1015C0002330310534F48D819E818130910561F0A5
:1015D00028C02D813E8123303105A1F08D819E816F
:1015E00084309105B1F01DC0E9E3F0E08081EB812A
:1015F000FC81808316C0E6E3F0E08081EB81FC8112
:1016000080830FC0E3E3F0E08081EB81FC81808385
:1016100008C0E0E3F0E08081EB81FC81808301C0C1
:101620001982898126960FB6F894DEBF0FBECDBF12
:10163000CF91DF910895DF93CF93CDB7DEB7659754
:101640000FB6F894DEBF0FBECDBF9D8B8C8BEC899F
:10165000FD898FEF808381E08A8B1F868C899D892D
:10166000009709F4EEC0198AE7C08989882F90E0B5
:10167000FC01E552FE4F908181E0692F40E00E941D
:101680005008188AC3C08889882F90E0FC01E15275
:10169000FE4F90819E012D5E3F4F82E0692FA90190
:1016A0000E9458098B89882309F0ADC080E090E042
:1016B000A0EAB1E48B879C87AD87BE876B857C856C
:1016C0008D859E8520E030E04AEF54E40E941702A9
:1016D000DC01CB018F839887A987BA876F817885D2
:1016E00089859A8520E030E040E85FE30E944D0460
:1016F00088232CF481E090E09E838D833FC06F812E
:10170000788589859A8520E03FEF4FE757E40E946E
:10171000ED0318164CF56B857C858D859E8520E044
:1017200030E040E251E40E941702DC01CB01BC0131
:10173000CD010E944100DC01CB019E838D830FC04F
:1017400088EC90E09C838B838B819C810197F1F7DF
:101750009C838B838D819E8101979E838D838D8158
:101760009E81009769F714C06F81788589859A8575
:101770000E944100DC01CB019E838D838D819E817F
:101780009A83898389819A810197F1F79A83898362
:101790008889882F90E0FC01E152FE4F90819E01E4
:1017A0002D5E3F4F82E0692FA9010E9458090FC0AA
:1017B0008889882F90E0FC01E152FE4F90819E01C4
:1017C0002D5E3F4F82E0692FA9010E9458098B8945
:1017D000882371F381E08F878989282F30E08889F9
:1017E000482F50E0C901880F991F820F931F880F5F
:1017F000991F840F951FFC01ED53FE4F8081EC89EA
:10180000FD89808307C088898F5F888B88898630AF
:1018100008F439CF8989882F90E0FC01E552FE4F0A
:10182000908181E0692F41E00E9450088F858823D4
:1018300049F489898F5F898B8989843008F415CFB1
:1018400001C01A8A8A8965960FB6F894DEBF0FBE6A
:10185000CDBFCF91DF910895DF93CF93CDB7DEB7A2
:10186000E8970FB6F894DEBF0FBECDBF84E062E00C
:1018700040E00E94500880E090E0ACE0B2E48DAB24
:101880009EABAFABB8AF6DA97EA98FA998AD20E094
:1018900030E04AEF54E40E941702DC01CB0189AB2F
:1018A0009AABABABBCAB69A97AA98BA99CA920E088
:1018B00030E040E85FE30E944D0488232CF481E08F
:1018C00090E098AB8FA73FC069A97AA98BA99CA982
:1018D00020E03FEF4FE757E40E94ED0318164CF568
:1018E0006DA97EA98FA998AD20E030E040E251E4D7
:1018F0000E941702DC01CB01BC01CD010E94410016
:10190000DC01CB0198AB8FA70FC088EC90E09EA7BD
:101910008DA78DA59EA50197F1F79EA78DA78FA5F1
:1019200098A9019798AB8FA78FA598A9009769F7F9
:1019300014C069A97AA98BA99CA90E944100DC0165
:10194000CB0198AB8FA78FA598A99CA78BA78BA538
:101950009CA50197F1F79CA78BA788E30E94180E1E
:1019600080E090E0A0EAB0E48FA398A7A9A7BAA767
:101970006FA178A589A59AA520E030E04AEF54E44C
:101980000E941702DC01CB018BA39CA3ADA3BEA3D5
:101990006BA17CA18DA19EA120E030E040E85FE337
:1019A0000E944D0488232CF481E090E09AA389A33F
:1019B0003FC06BA17CA18DA19EA120E03FEF4FE72E
:1019C00057E40E94ED0318164CF56FA178A589A580
:1019D0009AA520E030E040E251E40E941702DC01C9
:1019E000CB01BC01CD010E944100DC01CB019AA3D7
:1019F00089A30FC088EC90E098A38F8F8F8D98A15A
:101A00000197F1F798A38F8F89A19AA101979AA3C3
:101A100089A389A19AA1009769F714C06BA17CA141
:101A20008DA19EA10E944100DC01CB019AA389A354
:101A300089A19AA19E8F8D8F8D8D9E8D0197F1F733
:101A40009E8F8D8F8CE00E94180E80E090E0A0EABF
:101A5000B0E4898F9A8FAB8FBC8F698D7A8D8B8D17
:101A60009C8D20E030E04AEF54E40E941702DC0134
:101A7000CB018D8B9E8BAF8BB88F6D897E898F89C3
:101A8000988D20E030E040E85FE30E944D04882319
:101A90002CF481E090E09C8B8B8B3FC06D897E891C
:101AA0008F89988D20E03FEF4FE757E40E94ED03C8
:101AB00018164CF5698D7A8D8B8D9C8D20E030E069
:101AC00040E251E40E941702DC01CB01BC01CD01D0
:101AD0000E944100DC01CB019C8B8B8B0FC088ECFA
:101AE00090E09A8B898B89899A890197F1F79A8B73
:101AF000898B8B899C8901979C8B8B8B8B899C898B
:101B0000009769F714C06D897E898F89988D0E942E
:101B10004100DC01CB019C8B8B8B8B899C89988B42
:101B20008F878F8598890197F1F7988B8F8781E050
:101B30000E94180E80E090E0A0EAB0E48B879C87BA
:101B4000AD87BE876B857C858D859E8520E030E0E6
:101B50004AEF54E40E941702DC01CB018F8398877F
:101B6000A987BA876F81788589859A8520E030E0DA
:101B700040E85FE30E944D0488232CF481E090E06C
:101B80009E838D833FC06F81788589859A8520E00B
:101B90003FEF4FE757E40E94ED0318164CF56B85B5
:101BA0007C858D859E8520E030E040E251E40E94F6
:101BB0001702DC01CB01BC01CD010E944100DC0118
:101BC000CB019E838D830FC088EC90E09C838B8338
:101BD0008B819C810197F1F79C838B838D819E8102
:101BE00001979E838D838D819E81009769F714C034
:101BF0006F81788589859A850E944100DC01CB013F
:101C00009E838D838D819E819A83898389819A8128
:101C10000197F1F79A83898386E00E94180EE8966F
:101C20000FB6F894DEBF0FBECDBFCF91DF91089500
:101C3000DF93CF93CDB7DEB72F970FB6F894DEBF03
:101C40000FBECDBF8F8784E060E040E00E94500867
:101C500084E061E040E00E94500884E062E040E0FF
:101C60000E94500883E06F850E94760A84E062E05B
:101C700041E00E94500880E090E0A0E8BFE38B873D
:101C80009C87AD87BE876B857C858D859E8520E092
:101C900030E04AEF54E40E941702DC01CB018F834D
:101CA0009887A987BA876F81788589859A8520E08A
:101CB00030E040E85FE30E944D0488232CF481E08B
:101CC00090E09E838D833FC06F81788589859A855A
:101CD00020E03FEF4FE757E40E94ED0318164CF564
:101CE0006B857C858D859E8520E030E040E251E467
:101CF0000E941702DC01CB01BC01CD010E94410012
:101D0000DC01CB019E838D830FC088EC90E09C8327
:101D10008B838B819C810197F1F79C838B838D81D1
:101D20009E8101979E838D838D819E81009769F7A7
:101D300014C06F81788589859A850E944100DC01F5
:101D4000CB019E838D838D819E819A838983898136
:101D50009A810197F1F79A83898384E062E040E0F9
:101D60000E9450082F960FB6F894DEBF0FBECDBF6D
:101D7000CF91DF910895DF93CF93CDB7DEB72F9743
:101D80000FB6F894DEBF0FBECDBF8F8784E060E052
:101D900041E00E94500884E061E040E00E94500869
:101DA00084E062E040E00E94500883E06F850E947A
:101DB000760A84E062E041E00E94500880E090E012
:101DC000A0E8BFE38B879C87AD87BE876B857C854A
:101DD0008D859E8520E030E04AEF54E40E94170292
:101DE000DC01CB018F839887A987BA876F817885BB
:101DF00089859A8520E030E040E85FE30E944D0449
:101E000088232CF481E090E09E838D833FC06F8116
:101E1000788589859A8520E03FEF4FE757E40E9457
:101E2000ED0318164CF56B857C858D859E8520E02D
:101E300030E040E251E40E941702DC01CB01BC011A
:101E4000CD010E944100DC01CB019E838D830FC038
:101E500088EC90E09C838B838B819C810197F1F7C8
:101E60009C838B838D819E8101979E838D838D8141
:101E70009E81009769F714C06F81788589859A855E
:101E80000E944100DC01CB019E838D838D819E8168
:101E90009A83898389819A810197F1F79A8389834B
:101EA00084E062E040E00E9450082F960FB6F8945C
:101EB000DEBF0FBECDBFCF91DF910895DF93CF93EB
:101EC00000D000D0CDB7DEB79C838B831A821982F5
:101ED0000FC02B813C8189819A81F901E80FF91F9C
:101EE00080810E94BB0E89819A8101969A838983A1
:101EF0002B813C8189819A81F901E80FF91F80814A
:101F0000882339F70F900F900F900F90CF91DF91AA
:101F10000895DF93CF93CDB7DEB76B970FB6F894E4
:101F2000DEBF0FBECDBF688F798F8A8F9B8F1B82DC
:101F3000888D998DAA8DBB8DBB230CF043C08DE29B
:101F40000E94BB0E888D998DAA8DBB8DB095A095F2
:101F5000909581959F4FAF4FBF4F888F998FAA8FD4
:101F6000BB8F30C0888D998DAA8DBB8D2AE030E063
:101F700040E050E0BC01CD010E943A18DC01CB01E9
:101F800089838B81282F30E08981482F405DCE01E5
:101F90000496FC01E20FF31F4083888D998DAA8D72
:101FA000BB8D2AE030E040E050E0BC01CD010E9452
:101FB0003A18DA01C901888F998FAA8FBB8F8B815C
:101FC0008F5F8B83888D998DAA8DBB8D0097A1051E
:101FD000B10541F68B8181508A830EC08A81282FFA
:101FE00030E0CE010496FC01E20FF31F80810E94D5
:101FF000BB0E8A8181508A838A81282F30E0CE01EE
:102000000496FC01E20FF31F8081882339F76B9659
:102010000FB6F894DEBF0FBECDBFCF91DF9108950C
:10202000DF93CF9300D000D00F92CDB7DEB78A8375
:102030006B8381E089838B818832D8F48A81282F51
:1020400030E03D832C838C819D81009731F02C8181
:102050003D812130310531F00AC08B8180580E94CA
:10206000180E08C08B8180540E94180E03C019827C
:1020700001C0198289810F900F900F900F900F90DF
:10208000CF91DF910895DF93CF9300D000D0CDB7EB
:10209000DEB78A837C836B838A81883018F58A81D6
:1020A000882F90E00896880F991F880F991F880F36
:1020B000991F0E94180E19820EC08981282F30E0C6
:1020C0008B819C81FC01E20FF31F80810E94BB0E7B
:1020D00089818F5F89838981883078F380E061E02E
:1020E0000E9410100F900F900F900F90CF91DF91E2
:1020F0000895DF93CF930F92CDB7DEB7898389819F
:10210000883018F489810E94BB0E0F90CF91DF9127
:102110000895DF93CF93CDB7DEB729970FB6F89424
:10212000DEBF0FBECDBF6E837F83888799878DB753
:102130009EB708970FB6F8949EBF0FBE8DBFEDB740
:10214000FEB73196CE0101969183808380E690E0C0
:10215000938382838E819F81A885B98584839583AB
:10216000A683B7830E94C2188DB79EB708960FB694
:10217000F8949EBF0FBE8DBFCE0101960E945E0FE8
:1021800029960FB6F894DEBF0FBECDBFCF91DF9179
:102190000895DF93CF93CDB7DEB7A6970FB6F89427
:1021A000DEBF0FBECDBF0E9424070E942C0C18A2D8
:1021B0001F8E1E8E1D8E188E1F861E861D861C86E7
:1021C0001B861A8619868A85813039F0CE0182965F
:1021D0000E941B0B8AA18F3FB1F38AA180538C8F81
:1021E0008AA18B8F188E8C8D8A30E8F48A85813095
:1021F00051F38AA10E94BB0E8F8D98A19C01220FE2
:10220000331FC901880F991F880F991F280F391F85
:102210008AA1882F90E0C097820F931F98A38F8F79
:1022200081E08B87D0CF8AA18D3219F08AA18F35BA
:1022300049F48B85882331F48DE20E94BB0E81E046
:102240008C87C1CF8AA18D33F9F48DE30E94BB0E38
:102250008C85813071F48F8D98A1909581959F4FD9
:10226000AA2797FDA095BA2FBC01CD010E94890F26
:1022700052C08F8D98A1AA2797FDA095BA2FBC01B7
:10228000CD010E94890F47C08AA1833781F48C85D4
:10229000813039F48F8D98A1909581959F4F98A3A7
:1022A0008F8F8AA18B8F8EE50E94BB0E34C08AA1CE
:1022B0008136C9F4898D9A8D98A38F8F81E00E9411
:1022C000180E83E690E00E945E0F1A86CE01829679
:1022D0000E941B0B8AA18F3FC9F38AA18B8F8AA111
:1022E0000E94BB0E18C08AA1833631F481E08E872C
:1022F00081E00E94180E0FC08C85813039F48F8DDB
:1023000098A1909581959F4F98A38F8F8AA18B8FCD
:102310008AA10E94BB0E8E85813051F418A21F8EB7
:102320001E8E1D8E1F861E861D861C861B864BCF0D
:10233000CE0182960E941B0B8AA18F3FC9F38AA10E
:1023400080538C8F188E8C8D8A30C0F48AA10E94A5
:10235000BB0E8D8D9E8D9C01220F331FC901880FEE
:10236000991F880F991F280F391F8AA1882F90E085
:10237000C097820F931F9E8F8D8FDACF8AA18D32E7
:1023800019F08AA18F3531F48DE20E94BB0E81E0F5
:102390008D87CECF8AA18D3371F48D85813039F44C
:1023A0008D8D9E8D909581959F4F9E8F8D8F8DE306
:1023B0000E94BB0E08C08AA1833629F481E08E8773
:1023C00081E00E94180E8E85813051F418A21F8E74
:1023D0001E8E1D8E1F861E861D861C861B86F3CEB6
:1023E0008D85813029F48C85813011F481E08987D5
:1023F0008B8D282F30E03EA32DA34DA15EA14F353C
:10240000510509F44CC08DA19EA18036910594F42C
:102410002DA13EA12B323105D1F04DA15EA14F324D
:10242000510509F496C08DA19EA18532910509F44C
:1024300039C35FC32DA13EA12337310509F474C20E
:102440004DA15EA14837510509F45BC052C3888D88
:102450008823D9F48F8D98A12D8D3E8DB9010E94CE
:102460007816DC01CB019A8F898F898D9A8DAA27E6
:1024700097FDA095BA2FBC01CD010E94890F81E084
:10248000888F18A21F8E1E8E1D8ECE0182960E94EE
:102490001B0B8AA189A38AA18F3FB9F32AC3888D18
:1024A000882329F58D85813039F48D8D9E8D909509
:1024B00081959F4F9E8F8D8F8F8D98A12D8D3E8DF5
:1024C000B9010E94A316DC01CB019A8F898F898DF7
:1024D0009A8DAA2797FDA095BA2FBC01CD010E9425
:1024E000890F81E0888F18A21F8E1E8E1D8ECE014F
:1024F00082960E941B0B8AA189A38AA18F3FB9F300
:10250000F8C2888D8823D9F48F8D98A12D8D3E8DAA
:10251000B9010E94D016DC01CB019A8F898F898D79
:102520009A8DAA2797FDA095BA2FBC01CD010E94D4
:10253000890F81E0888F18A21F8E1E8E1D8ECE01FE
:1025400082960E941B0B8AA189A38AA18F3FB9F3AF
:10255000D0C2888D882309F0DDC18F8D98A12D8D83
:102560003E8DB9010E940117DC01CB018C8B9D8B44
:10257000AE8BBF8B8F8D98A12D8D3E8DB9010E94A2
:102580000117DC01CB01BC01CD010E94DB04DC01A1
:10259000CB019A8F898F898D9A8DAA2797FDA09557
:1025A000BA2FBC01CD010E947D049B01AC016C8956
:1025B0007D898E899F890E94B901DC01CB018D83C1
:1025C0009E83AF83B8878D8D9E8D009781F481E0C7
:1025D0000E94180E87E690E00E945E0F81E060E0A6
:1025E0000E94101086E790E00E945E0F93C16D81FB
:1025F0007E818F81988520E030E040E050E00E94AD
:10260000BD03882309F5898D9A8DAA2797FDA0958A
:10261000BA2FBC01CD010E94890F81E0888F18A2DA
:102620001F8E1E8E1D8E80E090E0A0E0B0E08D83B6
:102630009E83AF83B88780E090E0A0E0B0E08C8B11
:102640009D8BAE8BBF8B66C18D85813021F08C85D3
:10265000813009F084C08985882309F080C0898D84
:102660009A8DAA2797FDA095BA2FBC01CD010E9493
:10267000890F898D9A8D009781F588E890E00E94F6
:102680005E0F8EE20E94BB0E898D9A8DAA2797FD60
:10269000A095BA2FBC01CD010E947D049B01AC0125
:1026A0006C897D898E899F890E94B901DC01CB01EB
:1026B000BC01CD0120E030E048EC52EC0E94170252
:1026C000DC01CB01BC01CD010E94DB04DC01CB01AC
:1026D000BC01CD010E94890F2BC08EE20E94BB0E6F
:1026E000898D9A8DAA2797FDA095BA2FBC01CD019F
:1026F0000E947D049B01AC016C897D898E899F8934
:102700000E94B901DC01CB01BC01CD0120E030E029
:1027100048EC52EC0E941702DC01CB01BC01CD0158
:102720000E94DB04DC01CB01BC01CD010E94890FBA
:1027300081E0888F18A21F8E1E8E1D8E80E090E093
:10274000A0E0B0E08D839E83AF83B88780E090E007
:10275000A0E0B0E08C8B9D8BAE8BBF8BDBC08D85FA
:10276000813009F08CC08C85813009F088C0898562
:10277000813009F084C0898D9A8D909581959F4F05
:10278000AA2797FDA095BA2FBC01CD010E94890F01
:10279000898D9A8D009781F588E890E00E945E0F00
:1027A0008EE20E94BB0E898D9A8DAA2797FDA09577
:1027B000BA2FBC01CD010E947D049B01AC016C8944
:1027C0007D898E899F890E94B901DC01CB01BC0102
:1027D000CD0120E030E048EC52E40E941702DC0119
:1027E000CB01BC01CD010E94DB04DC01CB01BC01AB
:1027F000CD010E94890F2BC08EE20E94BB0E898DF5
:102800009A8DAA2797FDA095BA2FBC01CD010E94F1
:102810007D049B01AC016C897D898E899F890E9412
:10282000B901DC01CB01BC01CD0120E030E048EC76
:1028300052E40E941702DC01CB01BC01CD010E94D1
:10284000DB04DC01CB01BC01CD010E94890F81E0DA
:10285000888F18A21F8E1E8E1D8E80E090E0A0E053
:10286000B0E08D839E83AF83B88780E090E0A0E0E6
:10287000B0E08C8B9D8BAE8BBF8B19864BC0898D46
:102880009A8DAA2797FDA095BA2FBC01CD010E9471
:10289000890F8EE20E94BB0E898D9A8DAA2797FD23
:1028A000A095BA2FBC01CD010E947D049B01AC0113
:1028B0006C897D898E899F890E94B901DC01CB01D9
:1028C000BC01CD0120E030E048EC52E40E94170248
:1028D000DC01CB01BC01CD010E94DB04DC01CB019A
:1028E000BC01CD010E94890F81E0888F18A21F8E44
:1028F0001E8E1D8E80E090E0A0E0B0E08D839E8370
:10290000AF83B88780E090E0A0E0B0E08C8B9D8B37
:10291000AE8BBF8BCE0182960E941B0B8AA189A32E
:102920008AA18F3FB9F3E5C0888D882309F0B0C034
:102930008D8D9E8DAA2797FDA095BA2FBC01CD0144
:102940000E947D04DC01CB01BC01CD010E9448172F
:10295000DC01CB018C8B9D8BAE8BBF8B8D8D9E8DC7
:10296000AA2797FDA095BA2FBC01CD010E947D0436
:10297000DC01CB01BC01CD010E944817DC01CB0179
:10298000BC01CD010E94DB04DC01CB019A8F898F51
:10299000898D9A8DAA2797FDA095BA2FBC01CD01EC
:1029A0000E947D049B01AC016C897D898E899F8981
:1029B0000E94B901DC01CB0189839A83AB83BC837C
:1029C0008D8D9E8D992384F481E00E94180E8BE8F2
:1029D00090E00E945E0F81E060E00E9410108BE9A1
:1029E00090E00E945E0F54C069817A818B819C8146
:1029F00020E030E040E050E00E94BD03882379F4FD
:102A0000898D9A8DAA2797FDA095BA2FBC01CD017B
:102A10000E94890F81E0888F18A21F8E39C0898D8E
:102A20009A8DAA2797FDA095BA2FBC01CD010E94CF
:102A3000890F8EE20E94BB0E898D9A8DAA2797FD81
:102A4000A095BA2FBC01CD010E947D049B01AC0171
:102A50006C897D898E899F890E94B901DC01CB0137
:102A6000BC01CD0120E030E048EC52E40E941702A6
:102A7000DC01CB01BC01CD010E94DB04DC01CB01F8
:102A8000BC01CD010E94890F81E0888F18A21F8EA2
:102A9000CE0182960E941B0B8AA189A38AA18F3F37
:102AA000B9F327C0888D8823D9F48F8D98A12D8DF7
:102AB0003E8DB9010E949E17DC01CB019A8F898F50
:102AC000898D9A8DAA2797FDA095BA2FBC01CD01BB
:102AD0000E94890F81E0888F18A21F8E1E8E1D8E86
:102AE000CE0182960E941B0B8AA189A38AA18F3FE7
:102AF000B9F389A1833681F481E00E94180E1A8E01
:102B0000198E18A21F8E1E8E1D8E188E1F861E8671
:102B10001D861C861B86D8C089A1282F30E03CA3C7
:102B20002BA34BA15CA14436510569F08BA19CA15C
:102B30008936910509F45EC02BA13CA121363105EF
:102B400009F4ADC0C1C01F861E861D861C861B866B
:102B500081E00E94180E1E8E1D8E8FEA90E00E946A
:102B60005E0FCE0182960E941B0B8AA18F3FC9F394
:102B70008AA180538C8F8C8D8A30C0F48AA10E94E8
:102B8000BB0E8D8D9E8D9C01220F331FC901880FB6
:102B9000991F880F991F280F391F8AA1882F90E04D
:102BA000C097820F931F9E8F8D8FDBCF8AA18D33AD
:102BB000C1F68DE30E94BB0E298D3A8D8D8D9E8DC1
:102BC000A901481B590BCA019A8F898F898D9A8D4B
:102BD000AA2797FDA095BA2FBC01CD010E94890FAD
:102BE000CE0182960E941B0B8AA189A38AA18F3FE6
:102BF000B9F36AC01F861E861D861C861B8681E06F
:102C00000E94180E1E8E1D8E85EB90E00E945E0FB6
:102C1000CE0182960E941B0B8AA18F3FC9F38AA125
:102C200080538C8F8C8D8A30C0F48AA10E94BB0E99
:102C30008D8D9E8D9C01220F331FC901880F991F16
:102C4000880F991F280F391F8AA1882F90E0C097FD
:102C5000820F931F9E8F8D8FDBCF8AA18D33C1F69C
:102C60008DE30E94BB0E298D3A8D8D8D9E8D820F36
:102C7000931F9A8F898F898D9A8DAA2797FDA0958A
:102C8000BA2FBC01CD010E94890FCE0182960E940D
:102C90001B0B8AA189A38AA18F3FB9F315C081E0DC
:102CA0008A8781E00E94180E1E8E1D8E18A21F8E2C
:102CB000188E1F861E861D861C861B86898D9A8D02
:102CC00098A38F8F8AA189A389A1833609F07BCA33
:102CD00081E00E94180E1A8E198E18A21F8E1E8E69
:102CE0001D8E188E1F861E861D861C861B866BCA2F
:102CF000DF93CF93CDB7DEB728970FB6F894DEBF3A
:102D00000FBECDBF9E838D8378876F832D813E81DB
:102D10008F819885820F931FAA2797FDA095BA2FC0
:102D200089839A83AB83BC8389819A81AB81BC817F
:102D3000BC01CD0128960FB6F894DEBF0FBECDBF03
:102D4000CF91DF910895DF93CF93CDB7DEB728976A
:102D50000FB6F894DEBF0FBECDBF9E838D837887FC
:102D60006F832D813E818F819885A901481B590B66
:102D7000CA01AA2797FDA095BA2F89839A83AB83AE
:102D8000BC8389819A81AB81BC81BC01CD0128962D
:102D90000FB6F894DEBF0FBECDBFCF91DF9108957F
:102DA000DF93CF93CDB7DEB728970FB6F894DEBF89
:102DB0000FBECDBF9E838D8378876F832D813E812B
:102DC0008F819885AC01249FC001259F900D349F71
:102DD000900D1124AA2797FDA095BA2F89839A8375
:102DE000AB83BC8389819A81AB81BC81BC01CD015D
:102DF00028960FB6F894DEBF0FBECDBFCF91DF91FE
:102E00000895EF92FF920F931F93DF93CF93CDB767
:102E1000DEB728970FB6F894DEBF0FBECDBF9E83F6
:102E20008D8378876F838D819E81AA2797FDA095DA
:102E3000BA2FBC01CD010E947D047B018C018F81E2
:102E40009885AA2797FDA095BA2FBC01CD010E94B5
:102E50007D049B01AC01C801B7010E941103DC0194
:102E6000CB0189839A83AB83BC8389819A81AB81AF
:102E7000BC81BC01CD0128960FB6F894DEBF0FBE11
:102E8000CDBFCF91DF911F910F91FF90EF900895EB
:102E9000DF93CF93CDB7DEB72A970FB6F894DEBF96
:102EA0000FBECDBF6F83788789879A878F8198857A
:102EB000A985BA858B839C83AD83BE831A821982D0
:102EC00029C06F81788589859A852B813C814D81C8
:102ED0005E810E941103DC01CB01BC01CD012B817D
:102EE0003C814D815E810E94EA01DC01CB01BC0185
:102EF000CD0120E030E040E050E40E941103DC010D
:102F0000CB018B839C83AD83BE8389819A8101969B
:102F10009A83898389819A818A30910594F28B8181
:102F20009C81AD81BE81BC01CD012A960FB6F8947B
:102F3000DEBF0FBECDBFCF91DF910895EF92FF921C
:102F40000F931F93DF93CF93CDB7DEB72C970FB6B8
:102F5000F894DEBF0FBECDBF9A8789877C876B87C9
:102F60002B853C8589859A85821793075CF4898532
:102F70009A85AA2797FDA095BA2F8D839E83AF834C
:102F8000B88733C089859A852B853C85B9010E9415
:102F90002718CB01AA2797FDA095BA2F89839A837A
:102FA000AB83BC8389859A857C010027F7FC00955B
:102FB000102F8B859C85AA2797FDA095BA2F298174
:102FC0003A814B815C81BC01CD010E940818DC0173
:102FD000CB01A8019701281B390B4A0B5B0BDA01C7
:102FE000C9018D839E83AF83B8878D819E81AF8118
:102FF000B885BC01CD012C960FB6F894DEBF0FBE8C
:10300000CDBFCF91DF911F910F91FF90EF90089569
:10301000629FD001739FF001829FE00DF11D649FBC
:10302000E00DF11D929FF00D839FF00D749FF00D48
:10303000659FF00D9927729FB00DE11DF91F639FE9
:10304000B00DE11DF91FBD01CF011124089597FBBB
:10305000092E07260AD077FD04D027D006D00020FD
:103060001AF4709561957F4F0895F6F790958195C4
:103070009F4F089597FB092E05260ED057FD04D0CB
:1030800028D00AD0001C38F45095409530952195F1
:103090003F4F4F4F5F4F0895F6F79095809570958D
:1030A00061957F4F8F4F9F4F0895AA1BBB1B51E126
:1030B00007C0AA1FBB1FA617B70710F0A61BB70BA8
:1030C000881F991F5A95A9F780959095BC01CD014D
:1030D0000895A1E21A2EAA1BBB1BFD010DC0AA1F59
:1030E000BB1FEE1FFF1FA217B307E407F50720F071
:1030F000A21BB30BE40BF50B661F771F881F991FEC
:103100001A9469F760957095809590959B01AC0134
:10311000BD01CF0108952F923F924F925F926F921F
:103120007F928F929F92AF92BF92CF92DF92EF9257
:10313000FF920F931F93CF93DF93CDB7DEB7CA1BD8
:10314000DB0B0FB6F894DEBF0FBECDBF09942A8803
:10315000398848885F846E847D848C849B84AA84AB
:10316000B984C884DF80EE80FD800C811B81AA8138
:10317000B981CE0FD11D0FB6F894DEBF0FBECDBF03
:10318000ED010895AEE0B0E0E8ECF8E10C94991898
:103190000D891E8986E08C831A8309838FEF9FE750
:1031A0009E838D839E01275E3F4FCE0101966F89DE
:1031B000788DA9010E94E6182F813885020F131F10
:1031C000F80110822E96E4E00C94B518ABE0B0E064
:1031D000ECEEF8E10C948B183C012B015A01FC0138
:1031E00017821682838181FD03C06FEF7FEFC6C116
:1031F0009AE0892E1E010894211C311CF3012381C1
:10320000F20123FD859123FF81912F01882309F489
:10321000B2C1853239F423FD859123FF81912F01BD
:10322000853229F490E0B3010E94D91AE7CF982F94
:10323000FF24EE249924FFE1FF15D0F09B3269F0C2
:103240009C3228F4903259F0933291F40EC09D32A2
:1032500049F0903369F441E024C052E0F52A84E05B
:10326000F82A28C098E0F92A25C0E0E1FE2A22C009
:10327000F7FC29C0892F80538A3070F4F6FE05C010
:10328000989C902C1124980E15C0E89CE02C1124D9
:10329000E80EF0E2FF2A0EC09E3229F4F6FC6BC164
:1032A00040E4F42A07C09C3619F450E8F52A02C01D
:1032B000983649F4F20123FD959123FF91912F0156
:1032C000992309F0B8CF892F8554833018F08052A4
:1032D000833038F444E050E0A40EB51E5FE3598318
:1032E0000FC0933631F0933779F0933509F056C01B
:1032F00020C0F5018081898342E050E0A40EB51E14
:10330000610101E010E012C0F501C080D180F6FC3F
:1033100003C06FEF7FEF02C0692D70E042E050E024
:10332000A40EB51EC6010E94CE1A8C015FE7F522DD
:1033300014C0F501C080D180F6FC03C06FEF7FEFB1
:1033400002C0692D70E042E050E0A40EB51EC60137
:103350000E94C31A8C0150E8F52AF3FE07C01AC078
:1033600080E290E0B3010E94D91AEA948E2D90E099
:1033700008171907A8F30EC0F601F7FC8591F7FEB0
:1033800081916F0190E0B3010E94D91AE110EA9493
:10339000015010400115110579F7EAC0943611F07B
:1033A000993669F5F7FE08C0F50120813181428127
:1033B000538184E090E00AC0F501808191819C01F5
:1033C000442737FD4095542F82E090E0A80EB91EA7
:1033D0009FE6F92257FF09C05095409530952195F9
:1033E0003F4F4F4F5F4FE0E8FE2ACA01B901A101EC
:1033F0002AE030E00E94051BD82ED21840C0953735
:1034000029F41F2D1F7E2AE030E01DC01F2D197FDB
:103410009F3661F0903720F4983509F0ACC00FC0AA
:10342000903739F0983709F0A6C004C028E030E0A2
:103430000AC0106114FD146020E130E004C014FDE6
:10344000166020E132E017FF08C0F501608171814C
:103450008281938144E050E008C0F5018081918130
:10346000BC0180E090E042E050E0A40EB51EA10156
:103470000E94051BD82ED2188FE7F82EF122F6FEF7
:103480000BC05EEFF522D91438F4F4FE07C0F2FC4D
:1034900005C08FEEF82202C01D2D01C0192DF4FECB
:1034A0000DC0FE01ED0DF11D8081803319F499EE00
:1034B000F92208C01F5FF2FE05C003C08F2D867879
:1034C00009F01F5F0F2DF3FC14C0F0FE0FC01E1596
:1034D00010F09D2C0BC09D2C9E0C911A1E2D06C029
:1034E00080E290E0B3010E94D91A1F5F1E15C0F35D
:1034F00004C01E1510F4E11A01C0EE2404FF0FC031
:1035000080E390E0B3010E94D91A02FF1DC001FDC3
:1035100003C088E790E00EC088E590E00BC0802FE4
:10352000867891F001FF02C08BE201C080E2F7FCD7
:103530008DE290E0B3010E94D91A06C080E390E0CA
:10354000B3010E94D91A9A94D914C0F3DA94F10104
:10355000ED0DF11D808190E0B3010E94D91ADD20AC
:10356000A9F706C080E290E0B3010E94D91AEA945C
:10357000EE20C1F743CEF30166817781CB012B9614
:10358000E2E10C94A718FC01059061507040011015
:10359000D8F7809590958E0F9F1F0895FC0161507C
:1035A000704001900110D8F7809590958E0F9F1F65
:1035B00008950F931F93CF93DF938C01EB018B81C1
:1035C00081FF1BC082FF0DC02E813F818C819D81B8
:1035D0002817390764F4E881F9810193F983E883B6
:1035E00006C0E885F985802F0995892B31F48E81F5
:1035F0009F8101969F838E8302C00FEF1FEFC8014A
:10360000DF91CF911F910F910895FA01AA272830D9
:1036100051F1203181F1E8946F936E7F6E5F7F4F9F
:103620008F4F9F4FAF4FB1E03ED0B4E03CD0670F1B
:10363000781F891F9A1FA11D680F791F8A1F911D6E
:10364000A11D6A0F711D811D911DA11D20D009F4BE
:1036500068943F912AE0269F11243019305D319300
:10366000DEF6CF010895462F4770405D4193B3E0E9
:103670000FD0C9F7F6CF462F4F70405D4A3318F090
:10368000495D31FD4052419302D0A9F7EACFB4E041
:10369000A6959795879577956795BA95C9F70097F9
:1036A0006105710508959B01AC010A2E069457959A
:1036B000479537952795BA95C9F7620F731F841FF1
:0A36C000951FA01D0895F894FFCF98
:1036CA00256600414E53004572726F723A4469761C
:1036DA006973696F6E006279203020697320756E94
:1036EA00646566696E6564002D30004572726F729A
:1036FA003A6E6567617469766520007371756172E7
:10370A006520697320756E646566696E656400413B
:10371A004E53202D00414E53202B00000000000084
:10372A00000000000102020303030304040404046A
:10373A000404040505050505050505050505050532
:10374A000505050606060606060606060606060612
:10375A0006060606060606060606060606060606FF
:10376A0006060607070707070707070707070707E2
:10377A0007070707070707070707070707070707CF
:10378A0007070707070707070707070707070707BF
:10379A0007070707070707070707070707070707AF
:1037AA000707070808080808080808080808080892
:1037BA00080808080808080808080808080808087F
:1037CA00080808080808080808080808080808086F
:1037DA00080808080808080808080808080808085F
:1037EA00080808080808080808080808080808084F
:1037FA00080808080808080808080808080808083F
:10380A00080808080808080808080808080808082E
:10381A00080808080808080808080808080808081E
:10382A0008080863373839782F2D3435365F612513
:10383A003132332B6473302E3D2B690001020300B1
:06384A0001020304050069
:00000001FF
